{
  "contractName": "Files",
  "abi": [
    {
      "constant": true,
      "inputs": [],
      "name": "filesCount",
      "outputs": [
        {
          "internalType": "uint256",
          "name": "",
          "type": "uint256"
        }
      ],
      "payable": false,
      "stateMutability": "view",
      "type": "function"
    },
    {
      "constant": true,
      "inputs": [],
      "name": "id",
      "outputs": [
        {
          "internalType": "uint256",
          "name": "",
          "type": "uint256"
        }
      ],
      "payable": false,
      "stateMutability": "view",
      "type": "function"
    }
  ],
  "bytecode": "0x608060405260008055348015601357600080fd5b506096806100226000396000f3fe6080604052348015600f57600080fd5b506004361060325760003560e01c8063af640d0f146037578063dfb5e9ba14604f575b600080fd5b603d6055565b60408051918252519081900360200190f35b603d605b565b60015481565b6000548156fea265627a7a7231582012f41ff1fe8d2bfe2ccfa2afb3224616fa9a497d10045f58719f9bd3e2bcbe4064736f6c634300050c0032",
  "source": "pragma solidity ^0.5.11;\r\n\r\ncontract Files {\r\n    uint public filesCount = 0;\r\n    uint public id;\r\n}",
  "sourcePath": "C:/Users/fdealmeida/Documents/Perso/Blockchain/Test/contracts/Files.sol",
  "compiler": {
    "name": "solc",
    "version": "0.5.12+commit.7709ece9.Emscripten.clang"
  },
  "schemaVersion": "3.0.20",
  "updatedAt": "2019-12-30T09:59:15.458Z",
  "networkType": "ethereum",
  "devdoc": {
    "methods": {}
  },
  "userdoc": {
    "methods": {}
  }
}