{
  "contractName": "Files",
  "abi": [
    {
      "inputs": [],
      "payable": false,
      "stateMutability": "nonpayable",
      "type": "constructor"
    },
    {
      "anonymous": false,
      "inputs": [
        {
          "indexed": false,
          "internalType": "uint256",
          "name": "id",
          "type": "uint256"
        },
        {
          "indexed": false,
          "internalType": "string",
          "name": "base64content",
          "type": "string"
        },
        {
          "indexed": false,
          "internalType": "bool",
          "name": "isPrivate",
          "type": "bool"
        }
      ],
      "name": "FileCreated",
      "type": "event"
    },
    {
      "anonymous": false,
      "inputs": [
        {
          "indexed": false,
          "internalType": "uint256",
          "name": "id",
          "type": "uint256"
        },
        {
          "indexed": false,
          "internalType": "string",
          "name": "base64content",
          "type": "string"
        },
        {
          "indexed": false,
          "internalType": "bool",
          "name": "isPrivate",
          "type": "bool"
        }
      ],
      "name": "privatePropertyChanged",
      "type": "event"
    },
    {
      "constant": true,
      "inputs": [
        {
          "internalType": "uint256",
          "name": "",
          "type": "uint256"
        }
      ],
      "name": "files",
      "outputs": [
        {
          "internalType": "uint256",
          "name": "id",
          "type": "uint256"
        },
        {
          "internalType": "string",
          "name": "base64content",
          "type": "string"
        },
        {
          "internalType": "bool",
          "name": "isPrivate",
          "type": "bool"
        }
      ],
      "payable": false,
      "stateMutability": "view",
      "type": "function"
    },
    {
      "constant": true,
      "inputs": [],
      "name": "filesCount",
      "outputs": [
        {
          "internalType": "uint256",
          "name": "",
          "type": "uint256"
        }
      ],
      "payable": false,
      "stateMutability": "view",
      "type": "function"
    },
    {
      "constant": false,
      "inputs": [
        {
          "internalType": "string",
          "name": "_content",
          "type": "string"
        }
      ],
      "name": "createFile",
      "outputs": [],
      "payable": false,
      "stateMutability": "nonpayable",
      "type": "function"
    },
    {
      "constant": false,
      "inputs": [
        {
          "internalType": "uint256",
          "name": "_id",
          "type": "uint256"
        }
      ],
      "name": "togglePrivateFile",
      "outputs": [],
      "payable": false,
      "stateMutability": "nonpayable",
      "type": "function"
    }
  ],
  "bytecode": "0x60806040526000805534801561001457600080fd5b5060408051808201909152601981527f49276d207468652066697273742073616d706c652066696c6500000000000000602082015261005b906001600160e01b0361006016565b61021f565b60008054600190810180835560408051606081018252828152602080820187815282840187905293865284815291909420845181559151805192936100ad93908501929190910190610184565b5060408201518160020160006101000a81548160ff0219169083151502179055509050507f4b86935e5db0b36161077f6d24e6d34eb43b58cb0fede26131b4592e2b5954a4600054826000604051808481526020018060200183151515158152602001828103825284818151815260200191508051906020019080838360005b8381101561014557818101518382015260200161012d565b50505050905090810190601f1680156101725780820380516001836020036101000a031916815260200191505b5094505050505060405180910390a150565b828054600181600116156101000203166002900490600052602060002090601f016020900481019282601f106101c557805160ff19168380011785556101f2565b828001600101855582156101f2579182015b828111156101f25782518255916020019190600101906101d7565b506101fe929150610202565b5090565b61021c91905b808211156101fe5760008155600101610208565b90565b6106868061022e6000396000f3fe608060405234801561001057600080fd5b506004361061004c5760003560e01c80634dfdc4fb1461005157806398bf1d01146100f9578063dfb5e9ba14610116578063f4c714b414610130575b600080fd5b6100f76004803603602081101561006757600080fd5b81019060208101813564010000000081111561008257600080fd5b82018360208201111561009457600080fd5b803590602001918460018302840111640100000000831117156100b657600080fd5b91908080601f0160208091040260200160405190810160405280939291908181526020018383808284376000920191909152509295506101d7945050505050565b005b6100f76004803603602081101561010f57600080fd5b50356102fb565b61011e6104de565b60408051918252519081900360200190f35b61014d6004803603602081101561014657600080fd5b50356104e4565b604051808481526020018060200183151515158152602001828103825284818151815260200191508051906020019080838360005b8381101561019a578181015183820152602001610182565b50505050905090810190601f1680156101c75780820380516001836020036101000a031916815260200191505b5094505050505060405180910390f35b600080546001908101808355604080516060810182528281526020808201878152828401879052938652848152919094208451815591518051929361022493908501929190910190610593565b5060408201518160020160006101000a81548160ff0219169083151502179055509050507f4b86935e5db0b36161077f6d24e6d34eb43b58cb0fede26131b4592e2b5954a4600054826000604051808481526020018060200183151515158152602001828103825284818151815260200191508051906020019080838360005b838110156102bc5781810151838201526020016102a4565b50505050905090810190601f1680156102e95780820380516001836020036101000a031916815260200191505b5094505050505060405180910390a150565b610303610611565b60008281526001602081815260409283902083516060810185528154815281840180548651600296821615610100026000190190911695909504601f810185900485028601850190965285855290949193858401939092908301828280156103ac5780601f10610381576101008083540402835291602001916103ac565b820191906000526020600020905b81548152906001019060200180831161038f57829003601f168201915b50505091835250506002919091015460ff161515602091820152604080830180511590526000858152600180845291902083518155838301518051949550859491936103fd93850192910190610593565b5060408201518160020160006101000a81548160ff0219169083151502179055509050507f03eaa3ccdb3e07dac322da72bde23d8f25a9cab454e1d178b936e55474a908eb816000015182602001518360400151604051808481526020018060200183151515158152602001828103825284818151815260200191508051906020019080838360005b8381101561049e578181015183820152602001610486565b50505050905090810190601f1680156104cb5780820380516001836020036101000a031916815260200191505b5094505050505060405180910390a15050565b60005481565b600160208181526000928352604092839020805481840180548651600296821615610100026000190190911695909504601f810185900485028601850190965285855290949193929091908301828280156105805780601f1061055557610100808354040283529160200191610580565b820191906000526020600020905b81548152906001019060200180831161056357829003601f168201915b5050506002909301549192505060ff1683565b828054600181600116156101000203166002900490600052602060002090601f016020900481019282601f106105d457805160ff1916838001178555610601565b82800160010185558215610601579182015b828111156106015782518255916020019190600101906105e6565b5061060d929150610634565b5090565b604051806060016040528060008152602001606081526020016000151581525090565b61064e91905b8082111561060d576000815560010161063a565b9056fea265627a7a72315820d2328a757c1e5aabf90456c53cdc2a9e26ee90d0b5a8bfe994d481577094095e64736f6c634300050c0032",
  "source": "pragma solidity ^0.5.11;\r\n\r\ncontract Files {\r\n    uint public filesCount = 0;\r\n\r\n    struct File {\r\n        uint id;\r\n        string base64content;\r\n        bool isPrivate;\r\n    }\r\n\r\n    event FileCreated (\r\n        uint id,\r\n        string base64content,\r\n        bool isPrivate\r\n    );\r\n\r\n    event privatePropertyChanged(\r\n        uint id,\r\n        string base64content,\r\n        bool isPrivate\r\n    );\r\n\r\n    mapping (uint => File) public files;\r\n\r\n    constructor() public {\r\n        createFile(\"I'm the first sample file\");\r\n    }\r\n\r\n    function createFile(string memory _content) public {\r\n        filesCount ++;\r\n        files[filesCount] = File(filesCount, _content, false);\r\n\r\n        emit FileCreated(filesCount, _content, false);\r\n    }\r\n\r\n    function togglePrivateFile(uint _id) public {\r\n        File memory _file = files[_id];\r\n        _file.isPrivate = !_file.isPrivate;\r\n\r\n        files[_id] = _file;\r\n\r\n        emit privatePropertyChanged(_file.id, _file.base64content, _file.isPrivate);\r\n    }\r\n}",
  "sourcePath": "C:/Users/fdealmeida/Documents/Perso/Blockchain/Test/contracts/Files.sol",
  "compiler": {
    "name": "solc",
    "version": "0.5.12+commit.7709ece9.Emscripten.clang"
  },
  "schemaVersion": "3.0.20",
  "updatedAt": "2019-12-30T16:13:34.829Z",
  "networkType": "ethereum",
  "devdoc": {
    "methods": {}
  },
  "userdoc": {
    "methods": {}
  }
}